:100000000C9434000C9451000C9451000C94510049
:100010000C9451000C94A8000C9451000C945100C5
:100020000C9451000C9451000C9451000C9451000C
:100030000C9451000C9451000C9451000C945100FC
:100040000C9451000C9451000C9451000C945100EC
:100050000C9451000C9451000C9451000C945100DC
:100060000C9451000C94510011241FBECFEFD4E02A
:10007000DEBFCDBF11E0A0E0B1E0E0EEF2E002C0F3
:1000800005900D92AC3CB107D9F721E0ACECB1E0A2
:1000900001C01D92A13DB207E1F70E9417010C9427
:1000A0006E010C9400001092C5008CE08093C40097
:1000B000E0ECF0E080818260808388E18093C10081
:1000C00086E08093C20008959091C00095FFFCCF18
:1000D0008093C60008958091C00087FFFCCF809177
:1000E000C60008950F931F93CF938C01C0E0F801D1
:1000F000EC0FF11D8081811104C0CF911F910F91F0
:1001000008950E946400CF5FF2CF0F931F93CF93A7
:10011000DF93C0E3D0E310E30E946B00082F0E943E
:1001200064000D3089F4105380ED8C0F94E6199F14
:10013000800D1124D0539AE0D99F800D1124DF91B6
:10014000CF911F910F9108951D2FDC2FC02FE4CF69
:100150001F920F920FB60F9211242F933F934F933C
:100160005F936F937F938F939F93AF93BF93EF931F
:10017000FF93289B24C0289810920101109200013F
:1001800080E090E02091CE013091CF01821793075B
:100190000CF11092CD011092CC01DA9AFF91EF91FF
:1001A000BF91AF919F918F917F916F915F914F918F
:1001B0003F912F910F900FBE0F901F90189581E0E7
:1001C00090E0909301018093000182E091E00E9411
:1001D0007200D6CFE3ECF9E03197F1F700C00000F0
:1001E0000196D0CF81E291E00E9472000E948500CA
:1001F0008093D0010E946B008091D00181508630A5
:1002000088F708958AE591E00E9472000E948500B7
:1002100090E09093CF018093CE010E946B0080917B
:10022000CE019091CF01893C910560F708958091AE
:100230007C00806480937C0080917A00846080934D
:100240007A0080917A00806880937A0080916800BB
:1002500084608093680080916D00846080936D005D
:1002600085B7806185BF78940E9453008EE991E044
:100270000E947200209A0E94F2000E940201C1E0D6
:10028000D0E0809100019091010118161906CCF779
:1002900080917A00806480937A0080917A0086FD54
:1002A000FCCF8091780090917900880F892F881F6A
:1002B000990B91959091D001981718F78091CC01E6
:1002C0009091CD01892BE9F6289A80EC91E00E946B
:1002D0007200D093CD01C093CC01D3CFF894FFCF5F
:1002E0000100596F7527726520616C6C207365740D
:1002F00021204F666620746F20736C656570210A3B
:1003000000576861742073656E73697469766974E7
:100310007920646F20796F752077616E742069741D
:1003200020746F2062653F20285363616C65206FE5
:10033000662031202D2036290A00486F77206C6F07
:100340006E6720646F20796F752077616E742074FA
:1003500068652064656C617920746F2062653F2058
:100360002831203D2031306D732C205363616C6542
:10037000206F662030202D20323030290A002D2DAC
:100380002D2D2053756E7269736520416C61726DFD
:1003900020436C6F636B202D2D2D2D2D2D0D0A000C
:0C03A00057414B455550212121210A00F6
:00000001FF
